:020000040801F1
:1080000020100020CD8E0108B58D0108B78D010824
:10801000B98D0108BB8D0108BD8D0108000000006D
:10802000000000000000000000000000BF8D0108FB
:10803000C18D010800000000C38D0108C58D010835
:10804000DD8E0108E18E0108E58E0108E98E010848
:10805000ED8E0108F18E0108F58E0108F98E0108F8
:10806000FD8E0108018F0108058F0108098F0108A5
:108070000D8F0108118F0108158F0108198F010854
:108080001D8F0108218F0108258F0108298F010804
:10809000CD8D01082D8F0108318F0108358F010822
:1080A000398F01083D8F0108418F0108458F010874
:1080B000498F01084D8F0108518F0108558F010824
:1080C000598F01085D8F0108618F0108658F0108D4
:1080D000698F01086D8F0108718F0108758F010884
:1080E000798F01087D8F0108818F0108858F010834
:1080F000898F01088D8F0108918F01080000000011
:10810000958F010800000000998F01089D8F0108DC
:10811000A18F0108A58F0108A98F0108AD8F010863
:10812000B18F0108B58F0108B98F0108BD8F010813
:10813000C18F0108C58F0108C98F0108CD8F0108C3
:10814000D18F0108D58F0108D98F0108DD8F010873
:1081500038B50400DFF85005844208D140F21945D3
:10816000280000F0C7FA280000F0D8FA07E040F233
:108170001A45280000F0BEFA280000F0CFFA31BD01
:1081800010B4002900D1FEE70300DBB2002B05D0BC
:10819000022B2ED01AD3032B43D05CE000234B716B
:1081A0000023CB7100238B7140F2FF334B810023FE
:1081B0000B7200234B7002238B700023CB700023C3
:1081C0000B7100234B7200230B7045E00123CB8120
:1081D00000230B7400230B8100230B8000234B80B2
:1081E00000238B800023CB8000238B8100234B81D5
:1081F00032E000231A001300DBB2082B06D2002362
:108200001400E4B20C44E372521CF4E700238B72B6
:1082100000234B6000230B7200234B7200230B6082
:108220001AE000231A001300DBB2082B06D2002349
:108230001400E4B20C44E372521CF4E700238B7286
:1082400000234B6000230B720023CB7400234B727E
:1082500000230B6000E0FEE710BC704770B4030021
:108260000A004FF6FF74210000201D6835F002055A
:108270001D601D6855F001051D601D1D2D68ED0771
:1082800003D4002901D0491EF7E71D1D2D68ED0715
:1082900002D40024200071E0167855782D0615F0E0
:1082A000407555EA86759678360416F4702635437F
:1082B000D678360516F4E00635435689761EB6059F
:1082C000B60D354313F11C0635601579012D04D127
:1082D0001D6855F080051D6003E01D6835F08005C0
:1082E0001D605579012D04D11D6855F040051D60B4
:1082F00003E01D6835F040051D609579012D04D11E
:108300001D6855F020051D6003E01D6835F020054F
:108310001D60D579012D04D11D6835F010051D6053
:1083200003E01D6855F010051D60157A012D04D17C
:108330001D6835F008051D6003E01D6855F008054F
:108340001D60557A012D04D11D6855F004051D608E
:1083500003E01D6835F004051D601D686D086D00A3
:108360001D6021001C1D2468E40703D5002901D0ED
:10837000491EF7E7002901D001242000C0B270BCDB
:10838000704710B40200002012F108031B685B0163
:1083900001D500230EE012F108031B681B0101D573
:1083A000012307E012F108031B68DB0001D502235B
:1083B00000E003231800C0B2032801D103208FE09E
:1083C0001800C0B212EB001010F5C070006810F079
:1083D00001001C00E4B212EB041414F5C074206018
:1083E000087A002813D11800C0B212EB001010F563
:1083F000C0700468086854EA4054487A044318007E
:10840000C0B212EB001010F5C070046014E0180048
:10841000C0B212EB001010F5C0700468486854EA4E
:10842000C004087A0443487A04431800C0B212EB2F
:10843000001010F5C07004601800C0B212EB0010FC
:1084400010F5C2700068000900011C00E4B212EBD4
:10845000041414F5C27420601800C0B212EB0010AE
:1084600010F5C2700468887A04431800C0B212EB99
:10847000001010F5C2700460887B4C7B240454EA21
:108480000064087B54EA0024C87A04431800C0B290
:1084900012EB001010F5C4700460887C4C7C24043E
:1084A00054EA0064087C54EA0024C87B04431800A2
:1084B000C0B212EB001010F5C67004601800C0B214
:1084C00012EB001010F5C070006850F001001C00A5
:1084D000E4B212EB041414F5C07420601800C0B2AA
:1084E00010BC704730B40200002400200B00DBB247
:1084F000002B03D0022B0FD007D314E012F1080396
:108500001D68DFF8A8312B400EE012F108031D684A
:10851000DFF89C312B4007E012F108031D68DFF8FB
:1085200094312B4000E000231D00002D0CD0DFF81B
:108530007C0185420AD0DFF87801854208D0DFF857
:108540007401854206D007E0022006E0012004E025
:10855000012002E0012000E00020C0B230BC7047E2
:1085600010B40B00DBB210EB031313F5D8731B68C8
:1085700013F004031372137A002B09D10B00DBB242
:1085800010EB031313F5D8731B685B0D136008E041
:108590000B00DBB210EB031313F5D8731B68DB0879
:1085A00053600B00DBB210EB031313F5D8731B6899
:1085B00013F0020353720B00DBB210EB031313F53D
:1085C000DA731B681B0AD3740B00DBB210EB0313C6
:1085D00013F5DA731B6813F00F0393720B00DBB211
:1085E00010EB031313F5DC731B68D3720B00DBB2C3
:1085F00010EB031313F5DC731B681B0A13730B00DA
:10860000DBB210EB031313F5DC731B681B0C537305
:108610000B00DBB210EB031313F5DC731B681B0EAE
:1086200093730B00DBB210EB031313F5DE731B68BF
:10863000D3730B00DBB210EB031313F5DE731B686F
:108640001B0A13740B00DBB210EB031313F5DE737C
:108650001B681B0C53740B00DBB210EB031313F5F8
:10866000DE731B681B0E93740B00DBB2002B08D16A
:1086700010F10C031B6853F0200310F10C0423606D
:1086800007E010F110031C6854F0200410F11003EF
:108690001C6010BC704710F1140213680B4310F1FA
:1086A00014021360704700000064004003000004DF
:1086B000000300080000031001220B009B0913F0C7
:1086C0001F039A4010EB11331A60704710B4DFF8A3
:1086D0007420010009B212EB91110B68012410F013
:1086E0001F018C402343010009B212EB9112136069
:1086F00010BC704710B4DFF84C20010009B212EB37
:1087000091110B68012410F01F018C4023430100DC
:1087100009B212EB9112136010BC704710B4DFF86D
:108720002420010009B212EB91110B68012410F012
:108730001F018C40A343010009B212EB9112136098
:1087400010BC70470010024010B410F00702644BD8
:108750001C684FF6FF010C4054EA022461490C43A7
:108760001C6010BC704780B55F496048016000F034
:1087700012F800F0FDF8002000F030F800F0C0F82A
:1087800000F076F8002210004FF6FF7180B28842A8
:10879000F6D0521CF7E780B54FF4C060FFF796FFA4
:1087A00040F20560FFF792FF40F20360FFF78EFF93
:1087B00040F20460FFF78AFF2023032210214C4877
:1087C00000F0FEF801214FF4004000F07DF9012394
:1087D00003220421474800F0F3F801BD3EB505002F
:1087E00040F20260FFF772FF434C4FF480530322C4
:1087F0001821200000F0E4F84FF400630322042164
:10880000200000F0DDF840F21970FFF75FFF6946C5
:108810000020FFF7B5FC394C2000FFF799FC002041
:108820008DF8040000208DF8050001208DF8060069
:1088300001208DF8070000208DF8080001208DF838
:1088400009008DF8005000208DF801000B208DF8F4
:10885000020001208DF803000820ADF80A006946E7
:108860002000FFF7FBFC02212000FFF714FF37BDBB
:108870002DE9F84185B00026002540F22310009034
:108880000020019008208DF80A0000208DF80900D2
:1088900000208DF8080000200100C9B2082907DA7D
:1088A00055216B460200D2B21A44D172401CF3E744
:1088B000124F69463800FFF764FD804640F6FF74AA
:1088C00040460100C9B23800FFF70CFE012803D072
:1088D000002C01D0641EF3E706B0BDE8F081000073
:1088E0000CED00E00000FA050480010808ED00E04E
:1088F00000100140001401400008014000640040E5
:1089000080B500220521142000F029F90020FFF78E
:108910001BFF01BD10B4020052B2002A09D50A01A2
:10892000204C03005BB213F00F03234403F8042C24
:1089300004E00C011C4B020052B29C5410BC704766
:1089400010B50400601EB0F1807F01D301200EE05D
:10895000611E164801600F215FF0FF30FFF7DAFF5C
:10896000002113480160072112480160002010BD5A
:1089700080B5114801684FF47A70B1FBF0F0FFF751
:10898000DFFF002800D0FEE700215FF0FF30FFF797
:10899000C1FF01BD09490868002802D00868401ECF
:1089A0000860704718ED00E000E400E014E000E02B
:1089B00018E000E010E000E00000002018000020B7
:1089C000F0B50027002511F00F06CC060CD5042ABF
:1089D00009D156F0030610F13C0427681F4310F13B
:1089E0003C04276000E016435FF0000C6446A4B22C
:1089F000082C2CD21C0034FA0CF4E40724D50768A8
:108A00005FF00F0E6446E4B2A4001EFA04FE37EADB
:108A10000E076446E4B2A40016FA04F427433D00AE
:108A2000282907D1012717FA0CF71F4010F1140469
:108A3000276008E0482906D1012717FA0CF71F40E4
:108A400010F11004276005601CF1010CCEE7082727
:108A50003C00A4B2102C36D21C00FC40E40730D5F8
:108A6000041DD4F800C05FF00F0E17F1F804E4B253
:108A7000A4001EFA04FE3CEA0E0C17F1F804E4B25E
:108A8000A40016FA04F454EA0C0C654628290AD10D
:108A90005FF0010C1CFA07FC13EA0C0C10F1140433
:108AA000C4F800C00BE0482909D15FF0010C1CFAA2
:108AB00007FC13EA0C0C10F11004C4F800C0041DEC
:108AC00025607F1CC4E7F0BDF0B40022002300261F
:108AD0000024002802D51D4D2D6801E01C4D2D6895
:108AE000C0F3034687B210F4401CBCF5401F07D109
:108AF00035F0E065164C226832F0E062226011E049
:108B0000C20206D50322B24013009D4355F0E06532
:108B100008E00200520DD2B2120117FA02F2954398
:108B200055F0E0650A00D2B2002A06D00200520DCC
:108B3000D2B2120117FA02F21543002802D5034AF5
:108B4000156001E0024A1560F0BC70471C0001404E
:108B500004000140354A024335490A6070472DE957
:108B6000F84304000D00160000275FF000085FF0D6
:108B700000092F48016811F4E061B1F5E06F02D1FE
:108B80000021042229E0016811F4E061B1F5C06F11
:108B900002D10121032220E0016811F4E061B1F566
:108BA000A06F02D10221022217E0016811F4E061F6
:108BB000B1F5806F02D1032101220EE0006810F4AC
:108BC000E060B0F5407F02D10421002205E04FF4BF
:108BD000A060FFF7BFFF022102222B00DBB2D1F120
:108BE00004008340B6465FFA8EFE5FF00F0CD2F1B0
:108BF00004003CFA00FC1CEA0E0E5EEA03031B01B3
:108C0000DFF830C02000C0B20CF800305FF0010C7B
:108C100014F01F001CFA00FCDFF81CE02000C0B2BA
:108C200040114EF820C0BDE8F18300000000FA05B5
:108C30000CED00E000E400E000E100E080B5524906
:108C4000086850F00100086008688007FCD54F4AAA
:108C5000106850F0800010600020009000985028AC
:108C600003D20098401C0090F8E7106850F0900084
:108C70001060002000900098502803D20098401CFB
:108C80000090F8E710688008800010600B6840488A
:108C900003400B605FF47F033E480360086830F4D4
:108CA000802008600020106000213B48016000F037
:108CB00001F801BD80B500F001F801BDF0B400225B
:108CC0000020314B196851F480311960521C196829
:108CD00011F400310800002803D14FF6FF718A42D9
:108CE000F4D11968890300D4FEE72C4C216851F0B7
:108CF000805121602A4C216851F440412160234D6C
:108D00002968296029682960296851F480612960EF
:108D10002E6824490E402E602E6823490E432E6093
:108D20001D4E376821490F403760376840F2416176
:108D30000F433760196851F08061196019680901A3
:108D4000FCD5196851F08071196019688901FCD54A
:108D5000216851F48031216015490B68DB03FBD594
:108D6000236853F4003323600B689B03FCD5296808
:108D7000890889002960296851F002012960296861
:108D80000907FCD5F0BC70470010024004100240F7
:108D9000FFFFF6EA081002402C1002401C100240AF
:108DA00000700040FFFFC39F0000352000F0FEBFB1
:108DB000047000407047FEE7FEE7FEE7FEE77047FD
:108DC0007047704780B5FFF7E5FD01BD10B5064C53
:108DD000064A00212000FFF7C3FB4CF2810120006E
:108DE000FFF76AFC10BD0000006400400400002092
:108DF00030B5016884684218416802EB5103C90725
:108E000003D54C4401E0491C08D19A4218BF12F91D
:108E1000011B01D10C3030BD12F8015B002904F8B0
:108E2000015BF0D4491EF7D5EFE7000010B5034A07
:108E30007A440832024C7C44A41D03E01C0000006C
:108E40002800000004E01168101D11448847024604
:108E5000A242F8D110BD000099FFFFFF840100007D
:108E60000E0000000000002000F00DF8002801D0E6
:108E7000FFF7DCFFAFF300800020AFF30080FFF7C7
:108E800072FC00F002F80120704700F001B8000009
:108E90000746384600F002F8FBE7000080B5AFF364
:108EA0000080024A11001820ABBEFBE7260002003A
:108EB0000548014603B4684680F30988AFF3008093
:108EC000AFF30080FFF7D0FFA5EDF5FE0148804726
:108ED000014800473D8C0108B18E0108FFF7FEBF35
:108EE000FFF7FEBFFFF7FEBFFFF7FEBFFFF7FEBFB6
:108EF000FFF7FEBFFFF7FEBFFFF7FEBFFFF7FEBFA6
:108F0000FFF7FEBFFFF7FEBFFFF7FEBFFFF7FEBF95
:108F1000FFF7FEBFFFF7FEBFFFF7FEBFFFF7FEBF85
:108F2000FFF7FEBFFFF7FEBFFFF7FEBFFFF7FEBF75
:108F3000FFF7FEBFFFF7FEBFFFF7FEBFFFF7FEBF65
:108F4000FFF7FEBFFFF7FEBFFFF7FEBFFFF7FEBF55
:108F5000FFF7FEBFFFF7FEBFFFF7FEBFFFF7FEBF45
:108F6000FFF7FEBFFFF7FEBFFFF7FEBFFFF7FEBF35
:108F7000FFF7FEBFFFF7FEBFFFF7FEBFFFF7FEBF25
:108F8000FFF7FEBFFFF7FEBFFFF7FEBFFFF7FEBF15
:108F9000FFF7FEBFFFF7FEBFFFF7FEBFFFF7FEBF05
:108FA000FFF7FEBFFFF7FEBFFFF7FEBFFFF7FEBFF5
:108FB000FFF7FEBFFFF7FEBFFFF7FEBFFFF7FEBFE5
:108FC000FFF7FEBFFFF7FEBFFFF7FEBFFFF7FEBFD5
:108FD000FFF7FEBFFFF7FEBFFFF7FEBFFFF7FEBFC5
:078FE00003000E2707E80063
:0400000508018EB1AF
:00000001FF
